{
  "contractName": "IoTMicropayment",
  "abi": [
    {
      "inputs": [
        {
          "internalType": "address",
          "name": "_seller",
          "type": "address"
        },
        {
          "internalType": "uint256",
          "name": "_timeout",
          "type": "uint256"
        },
        {
          "internalType": "uint256",
          "name": "_unitPrice",
          "type": "uint256"
        }
      ],
      "stateMutability": "payable",
      "type": "constructor",
      "payable": true
    },
    {
      "inputs": [],
      "name": "buyer",
      "outputs": [
        {
          "internalType": "address",
          "name": "",
          "type": "address"
        }
      ],
      "stateMutability": "view",
      "type": "function",
      "constant": true
    },
    {
      "inputs": [],
      "name": "seller",
      "outputs": [
        {
          "internalType": "address",
          "name": "",
          "type": "address"
        }
      ],
      "stateMutability": "view",
      "type": "function",
      "constant": true
    },
    {
      "inputs": [],
      "name": "startDate",
      "outputs": [
        {
          "internalType": "uint256",
          "name": "",
          "type": "uint256"
        }
      ],
      "stateMutability": "view",
      "type": "function",
      "constant": true
    },
    {
      "inputs": [],
      "name": "timeout",
      "outputs": [
        {
          "internalType": "uint256",
          "name": "",
          "type": "uint256"
        }
      ],
      "stateMutability": "view",
      "type": "function",
      "constant": true
    },
    {
      "inputs": [],
      "name": "unitPrice",
      "outputs": [
        {
          "internalType": "uint256",
          "name": "",
          "type": "uint256"
        }
      ],
      "stateMutability": "view",
      "type": "function",
      "constant": true
    },
    {
      "inputs": [
        {
          "internalType": "uint256",
          "name": "amount",
          "type": "uint256"
        },
        {
          "internalType": "uint256",
          "name": "nonce",
          "type": "uint256"
        },
        {
          "internalType": "bytes",
          "name": "signature",
          "type": "bytes"
        }
      ],
      "name": "claimPayment",
      "outputs": [],
      "stateMutability": "nonpayable",
      "type": "function"
    },
    {
      "inputs": [],
      "name": "channelTimeout",
      "outputs": [],
      "stateMutability": "nonpayable",
      "type": "function"
    }
  ],
  "bytecode": "0x608060405260405162000efe38038062000efe8339818101604052810190620000299190620001ac565b600034116200006f576040517f08c379a0000000000000000000000000000000000000000000000000000000008152600401620000669062000243565b60405180910390fd5b33600160006101000a81548173ffffffffffffffffffffffffffffffffffffffff021916908373ffffffffffffffffffffffffffffffffffffffff160217905550826000806101000a81548173ffffffffffffffffffffffffffffffffffffffff021916908373ffffffffffffffffffffffffffffffffffffffff160217905550816003819055508060048190555050505062000265565b600080fd5b600073ffffffffffffffffffffffffffffffffffffffff82169050919050565b600062000139826200010c565b9050919050565b6200014b816200012c565b81146200015757600080fd5b50565b6000815190506200016b8162000140565b92915050565b6000819050919050565b620001868162000171565b81146200019257600080fd5b50565b600081519050620001a6816200017b565b92915050565b600080600060608486031215620001c857620001c762000107565b5b6000620001d8868287016200015a565b9350506020620001eb8682870162000195565b9250506040620001fe8682870162000195565b9150509250925092565b600082825260208201905092915050565b50565b60006200022b60008362000208565b9150620002388262000219565b600082019050919050565b600060208201905081810360008301526200025e816200021c565b9050919050565b610c8980620002756000396000f3fe608060405234801561001057600080fd5b506004361061007d5760003560e01c806370dea79a1161005b57806370dea79a146100c85780637150d8ae146100e6578063a90ae88714610104578063e73faa2d146101205761007d565b806308551a53146100825780630b97bc86146100a05780632ef2d55e146100be575b600080fd5b61008a61013e565b6040516100979190610593565b60405180910390f35b6100a8610162565b6040516100b591906105c7565b60405180910390f35b6100c6610168565b005b6100d06101f5565b6040516100dd91906105c7565b60405180910390f35b6100ee6101fb565b6040516100fb9190610593565b60405180910390f35b61011e60048036038101906101199190610768565b610221565b005b610128610445565b60405161013591906105c7565b60405180910390f35b60008054906101000a900473ffffffffffffffffffffffffffffffffffffffff1681565b60025481565b426003546002546101799190610806565b11156101ba576040517f08c379a00000000000000000000000000000000000000000000000000000000081526004016101b1906108b9565b60405180910390fd5b600160009054906101000a900473ffffffffffffffffffffffffffffffffffffffff1673ffffffffffffffffffffffffffffffffffffffff16ff5b60035481565b600160009054906101000a900473ffffffffffffffffffffffffffffffffffffffff1681565b60008054906101000a900473ffffffffffffffffffffffffffffffffffffffff1673ffffffffffffffffffffffffffffffffffffffff163373ffffffffffffffffffffffffffffffffffffffff16146102af576040517f08c379a00000000000000000000000000000000000000000000000000000000081526004016102a690610925565b60405180910390fd5b6006600083815260200190815260200160002060009054906101000a900460ff16156102da57600080fd5b60016006600084815260200190815260200160002060006101000a81548160ff021916908315150217905550600061033d338585306040516020016103229493929190610a15565b6040516020818303038152906040528051906020012061044b565b9050600160009054906101000a900473ffffffffffffffffffffffffffffffffffffffff1673ffffffffffffffffffffffffffffffffffffffff16610382828461047b565b73ffffffffffffffffffffffffffffffffffffffff16146103d8576040517f08c379a00000000000000000000000000000000000000000000000000000000081526004016103cf90610aaf565b60405180910390fd5b60008054906101000a900473ffffffffffffffffffffffffffffffffffffffff1673ffffffffffffffffffffffffffffffffffffffff166108fc859081150290604051600060405180830381858888f1935050505015801561043e573d6000803e3d6000fd5b5050505050565b60045481565b60008160405160200161045e9190610b51565b604051602081830303815290604052805190602001209050919050565b60008060008061048a856104ea565b925092509250600186848484604051600081526020016040526040516104b39493929190610ba2565b6020604051602081039080840390855afa1580156104d5573d6000803e3d6000fd5b50505060206040510351935050505092915050565b60008060006041845114610533576040517f08c379a000000000000000000000000000000000000000000000000000000000815260040161052a90610c33565b60405180910390fd5b6020840151915060408401519050606084015160001a92509193909250565b600073ffffffffffffffffffffffffffffffffffffffff82169050919050565b600061057d82610552565b9050919050565b61058d81610572565b82525050565b60006020820190506105a86000830184610584565b92915050565b6000819050919050565b6105c1816105ae565b82525050565b60006020820190506105dc60008301846105b8565b92915050565b6000604051905090565b600080fd5b600080fd5b6105ff816105ae565b811461060a57600080fd5b50565b60008135905061061c816105f6565b92915050565b600080fd5b600080fd5b6000601f19601f8301169050919050565b7f4e487b7100000000000000000000000000000000000000000000000000000000600052604160045260246000fd5b6106758261062c565b810181811067ffffffffffffffff821117156106945761069361063d565b5b80604052505050565b60006106a76105e2565b90506106b3828261066c565b919050565b600067ffffffffffffffff8211156106d3576106d261063d565b5b6106dc8261062c565b9050602081019050919050565b82818337600083830152505050565b600061070b610706846106b8565b61069d565b90508281526020810184848401111561072757610726610627565b5b6107328482856106e9565b509392505050565b600082601f83011261074f5761074e610622565b5b813561075f8482602086016106f8565b91505092915050565b600080600060608486031215610781576107806105ec565b5b600061078f8682870161060d565b93505060206107a08682870161060d565b925050604084013567ffffffffffffffff8111156107c1576107c06105f1565b5b6107cd8682870161073a565b9150509250925092565b7f4e487b7100000000000000000000000000000000000000000000000000000000600052601160045260246000fd5b6000610811826105ae565b915061081c836105ae565b9250827fffffffffffffffffffffffffffffffffffffffffffffffffffffffffffffffff03821115610851576108506107d7565b5b828201905092915050565b600082825260208201905092915050565b7f6e6f74207965742074696d6564206f7574000000000000000000000000000000600082015250565b60006108a360118361085c565b91506108ae8261086d565b602082019050919050565b600060208201905081810360008301526108d281610896565b9050919050565b7f796f7520617265206e6f74207468652073656c6c657200000000000000000000600082015250565b600061090f60168361085c565b915061091a826108d9565b602082019050919050565b6000602082019050818103600083015261093e81610902565b9050919050565b60008160601b9050919050565b600061095d82610945565b9050919050565b600061096f82610952565b9050919050565b61098761098282610572565b610964565b82525050565b6000819050919050565b6109a86109a3826105ae565b61098d565b82525050565b6000819050919050565b60006109d36109ce6109c984610552565b6109ae565b610552565b9050919050565b60006109e5826109b8565b9050919050565b60006109f7826109da565b9050919050565b610a0f610a0a826109ec565b610964565b82525050565b6000610a218287610976565b601482019150610a318286610997565b602082019150610a418285610997565b602082019150610a5182846109fe565b60148201915081905095945050505050565b7f7369676e657220646f6573206e6f74206d617463686564000000000000000000600082015250565b6000610a9960178361085c565b9150610aa482610a63565b602082019050919050565b60006020820190508181036000830152610ac881610a8c565b9050919050565b600081905092915050565b7f19457468657265756d205369676e6564204d6573736167653a0a333200000000600082015250565b6000610b10601c83610acf565b9150610b1b82610ada565b601c82019050919050565b6000819050919050565b6000819050919050565b610b4b610b4682610b26565b610b30565b82525050565b6000610b5c82610b03565b9150610b688284610b3a565b60208201915081905092915050565b610b8081610b26565b82525050565b600060ff82169050919050565b610b9c81610b86565b82525050565b6000608082019050610bb76000830187610b77565b610bc46020830186610b93565b610bd16040830185610b77565b610bde6060830184610b77565b95945050505050565b7f696e76616c6964207369676e6174757265206c656e6774680000000000000000600082015250565b6000610c1d60188361085c565b9150610c2882610be7565b602082019050919050565b60006020820190508181036000830152610c4c81610c10565b905091905056fea2646970667358221220e522f3c81e5528260949431764d3bfad68d33a318e6fff9dce943dd22e00614064736f6c634300080a0033",
  "immutableReferences": {},
  "source": "// SPDX-License-Identifier: MIT\npragma solidity >=0.4.22 <0.9.0;\n\n// : https://solidity-jp.readthedocs.io/ja/latest/solidity-by-example.html\n\ncontract IoTMicropayment {\n    address public seller;\n    address public buyer;\n\n    uint256 public startDate;\n    uint256 public timeout;\n\n    uint256 public unitPrice;\n    mapping(bytes32 => address) private signatures;\n\n    mapping(uint256 => bool) usedNonces;\n\n    constructor(\n        address _seller,\n        uint256 _timeout,\n        uint256 _unitPrice\n    ) payable {\n        require(msg.value > 0, \"\");\n        buyer = msg.sender;\n        seller = _seller;\n        timeout = _timeout;\n        unitPrice = _unitPrice;\n    }\n\n    modifier onlySeller() {\n        require(msg.sender == seller, \"you are not the seller\");\n        _;\n    }\n\n    function claimPayment(\n        uint256 amount,\n        uint256 nonce,\n        bytes memory signature\n    ) public onlySeller {\n        require(!usedNonces[nonce]);\n        usedNonces[nonce] = true;\n\n        bytes32 message = prefixed(\n            keccak256(abi.encodePacked(msg.sender, amount, nonce, this))\n        );\n        require(\n            recoverSigner(message, signature) == buyer,\n            \"signer does not matched\"\n        );\n\n        payable(seller).transfer(amount);\n    }\n\n    function channelTimeout() public {\n        require(startDate + timeout <= block.timestamp, \"not yet timed out\");\n        selfdestruct(payable(buyer));\n    }\n\n    function recoverSigner(bytes32 message, bytes memory signature)\n        internal\n        pure\n        returns (address)\n    {\n        (uint8 v, bytes32 r, bytes32 s) = splitSignature(signature);\n\n        return ecrecover(message, v, r, s);\n    }\n\n    function splitSignature(bytes memory signature)\n        internal\n        pure\n        returns (\n            uint8 v,\n            bytes32 r,\n            bytes32 s\n        )\n    {\n        require(signature.length == 65, \"invalid signature length\");\n\n        assembly {\n            r := mload(add(signature, 32))\n            s := mload(add(signature, 64))\n            v := byte(0, mload(add(signature, 96)))\n        }\n\n        return (v, r, s);\n    }\n\n    function prefixed(bytes32 hash) internal pure returns (bytes32) {\n        return\n            keccak256(\n                abi.encodePacked(\"\\x19Ethereum Signed Message:\\n32\", hash)\n            );\n    }\n}\n",
  "sourcePath": "/workspaces/attiwohelp2/contracts/IoTMicropayment.sol",
  "compiler": {
    "name": "solc",
    "version": "0.8.10+commit.fc410830.Emscripten.clang"
  },
  "schemaVersion": "3.4.4",
  "updatedAt": "2022-01-10T08:59:42.956Z",
  "networkType": "ethereum",
  "devdoc": {
    "kind": "dev",
    "methods": {},
    "version": 1
  },
  "userdoc": {
    "kind": "user",
    "methods": {},
    "version": 1
  }
}