{
  "contractName": "IoTMicropayment",
  "abi": [
    {
      "inputs": [
        {
          "internalType": "address",
          "name": "_seller",
          "type": "address"
        },
        {
          "internalType": "uint256",
          "name": "_timeout",
          "type": "uint256"
        },
        {
          "internalType": "uint256",
          "name": "_unitPrice",
          "type": "uint256"
        }
      ],
      "stateMutability": "payable",
      "type": "constructor",
      "payable": true
    },
    {
      "inputs": [],
      "name": "buyer",
      "outputs": [
        {
          "internalType": "address",
          "name": "",
          "type": "address"
        }
      ],
      "stateMutability": "view",
      "type": "function",
      "constant": true
    },
    {
      "inputs": [],
      "name": "seller",
      "outputs": [
        {
          "internalType": "address",
          "name": "",
          "type": "address"
        }
      ],
      "stateMutability": "view",
      "type": "function",
      "constant": true
    },
    {
      "inputs": [],
      "name": "startDate",
      "outputs": [
        {
          "internalType": "uint256",
          "name": "",
          "type": "uint256"
        }
      ],
      "stateMutability": "view",
      "type": "function",
      "constant": true
    },
    {
      "inputs": [],
      "name": "timeout",
      "outputs": [
        {
          "internalType": "uint256",
          "name": "",
          "type": "uint256"
        }
      ],
      "stateMutability": "view",
      "type": "function",
      "constant": true
    },
    {
      "inputs": [],
      "name": "unitPrice",
      "outputs": [
        {
          "internalType": "uint256",
          "name": "",
          "type": "uint256"
        }
      ],
      "stateMutability": "view",
      "type": "function",
      "constant": true
    },
    {
      "inputs": [],
      "name": "withdrawed",
      "outputs": [
        {
          "internalType": "uint256",
          "name": "",
          "type": "uint256"
        }
      ],
      "stateMutability": "view",
      "type": "function",
      "constant": true
    },
    {
      "inputs": [
        {
          "internalType": "uint256",
          "name": "amount",
          "type": "uint256"
        },
        {
          "internalType": "uint256",
          "name": "nonce",
          "type": "uint256"
        },
        {
          "internalType": "bytes",
          "name": "signature",
          "type": "bytes"
        }
      ],
      "name": "claimPayment",
      "outputs": [],
      "stateMutability": "nonpayable",
      "type": "function"
    },
    {
      "inputs": [],
      "name": "channelTimeout",
      "outputs": [],
      "stateMutability": "nonpayable",
      "type": "function"
    },
    {
      "inputs": [
        {
          "internalType": "bytes32",
          "name": "_hash",
          "type": "bytes32"
        }
      ],
      "name": "prefixed",
      "outputs": [
        {
          "internalType": "bytes32",
          "name": "",
          "type": "bytes32"
        }
      ],
      "stateMutability": "pure",
      "type": "function",
      "constant": true
    }
  ],
  "bytecode": "0x6080604052604051620010e7380380620010e78339818101604052810190620000299190620001b3565b600034116200006f576040517f08c379a0000000000000000000000000000000000000000000000000000000008152600401620000669062000270565b60405180910390fd5b33600160006101000a81548173ffffffffffffffffffffffffffffffffffffffff021916908373ffffffffffffffffffffffffffffffffffffffff160217905550826000806101000a81548173ffffffffffffffffffffffffffffffffffffffff021916908373ffffffffffffffffffffffffffffffffffffffff16021790555081600381905550806004819055504260028190555050505062000292565b600080fd5b600073ffffffffffffffffffffffffffffffffffffffff82169050919050565b6000620001408262000113565b9050919050565b620001528162000133565b81146200015e57600080fd5b50565b600081519050620001728162000147565b92915050565b6000819050919050565b6200018d8162000178565b81146200019957600080fd5b50565b600081519050620001ad8162000182565b92915050565b600080600060608486031215620001cf57620001ce6200010e565b5b6000620001df8682870162000161565b9350506020620001f2868287016200019c565b925050604062000205868287016200019c565b9150509250925092565b600082825260208201905092915050565b7f6465706f73697420616d6f756e74206973206e6f7420656e6f75676800000000600082015250565b600062000258601c836200020f565b9150620002658262000220565b602082019050919050565b600060208201905081810360008301526200028b8162000249565b9050919050565b610e4580620002a26000396000f3fe608060405234801561001057600080fd5b50600436106100935760003560e01c806370dea79a1161006657806370dea79a1461010e5780637150d8ae1461012c5780639a7971281461014a578063a90ae88714610168578063e73faa2d1461018457610093565b806308551a53146100985780630b97bc86146100b65780631f275713146100d45780632ef2d55e14610104575b600080fd5b6100a06101a2565b6040516100ad919061064d565b60405180910390f35b6100be6101c6565b6040516100cb9190610681565b60405180910390f35b6100ee60048036038101906100e991906106e6565b6101cc565b6040516100fb9190610722565b60405180910390f35b61010c6101fc565b005b610116610289565b6040516101239190610681565b60405180910390f35b61013461028f565b604051610141919061064d565b60405180910390f35b6101526102b5565b60405161015f9190610681565b60405180910390f35b610182600480360381019061017d91906108af565b6102bb565b005b61018c6104b2565b6040516101999190610681565b60405180910390f35b60008054906101000a900473ffffffffffffffffffffffffffffffffffffffff1681565b60025481565b6000816040516020016101df9190610996565b604051602081830303815290604052805190602001209050919050565b4260035460025461020d91906109eb565b111561024e576040517f08c379a000000000000000000000000000000000000000000000000000000000815260040161024590610a9e565b60405180910390fd5b600160009054906101000a900473ffffffffffffffffffffffffffffffffffffffff1673ffffffffffffffffffffffffffffffffffffffff16ff5b60035481565b600160009054906101000a900473ffffffffffffffffffffffffffffffffffffffff1681565b60065481565b60008054906101000a900473ffffffffffffffffffffffffffffffffffffffff1673ffffffffffffffffffffffffffffffffffffffff163373ffffffffffffffffffffffffffffffffffffffff1614610349576040517f08c379a000000000000000000000000000000000000000000000000000000000815260040161034090610b0a565b60405180910390fd5b6007600083815260200190815260200160002060009054906101000a900460ff161561037457600080fd5b60016007600084815260200190815260200160002060006101000a81548160ff0219169083151502179055506103ce600160009054906101000a900473ffffffffffffffffffffffffffffffffffffffff168484846104b8565b61040d576040517f08c379a000000000000000000000000000000000000000000000000000000000815260040161040490610b76565b60405180910390fd5b6000600654600454856104209190610b96565b61042a9190610bf0565b9050806006600082825461043e91906109eb565b9250508190555060008054906101000a900473ffffffffffffffffffffffffffffffffffffffff1673ffffffffffffffffffffffffffffffffffffffff166108fc829081150290604051600060405180830381858888f193505050501580156104ab573d6000803e3d6000fd5b5050505050565b60045481565b6000806104f0868686306040516020016104d59493929190610cf4565b604051602081830303815290604052805190602001206101cc565b90508573ffffffffffffffffffffffffffffffffffffffff166105138285610535565b73ffffffffffffffffffffffffffffffffffffffff1614915050949350505050565b600080600080610544856105a4565b9250925092506001868484846040516000815260200160405260405161056d9493929190610d5e565b6020604051602081039080840390855afa15801561058f573d6000803e3d6000fd5b50505060206040510351935050505092915050565b600080600060418451146105ed576040517f08c379a00000000000000000000000000000000000000000000000000000000081526004016105e490610def565b60405180910390fd5b6020840151915060408401519050606084015160001a92509193909250565b600073ffffffffffffffffffffffffffffffffffffffff82169050919050565b60006106378261060c565b9050919050565b6106478161062c565b82525050565b6000602082019050610662600083018461063e565b92915050565b6000819050919050565b61067b81610668565b82525050565b60006020820190506106966000830184610672565b92915050565b6000604051905090565b600080fd5b600080fd5b6000819050919050565b6106c3816106b0565b81146106ce57600080fd5b50565b6000813590506106e0816106ba565b92915050565b6000602082840312156106fc576106fb6106a6565b5b600061070a848285016106d1565b91505092915050565b61071c816106b0565b82525050565b60006020820190506107376000830184610713565b92915050565b61074681610668565b811461075157600080fd5b50565b6000813590506107638161073d565b92915050565b600080fd5b600080fd5b6000601f19601f8301169050919050565b7f4e487b7100000000000000000000000000000000000000000000000000000000600052604160045260246000fd5b6107bc82610773565b810181811067ffffffffffffffff821117156107db576107da610784565b5b80604052505050565b60006107ee61069c565b90506107fa82826107b3565b919050565b600067ffffffffffffffff82111561081a57610819610784565b5b61082382610773565b9050602081019050919050565b82818337600083830152505050565b600061085261084d846107ff565b6107e4565b90508281526020810184848401111561086e5761086d61076e565b5b610879848285610830565b509392505050565b600082601f83011261089657610895610769565b5b81356108a684826020860161083f565b91505092915050565b6000806000606084860312156108c8576108c76106a6565b5b60006108d686828701610754565b93505060206108e786828701610754565b925050604084013567ffffffffffffffff811115610908576109076106ab565b5b61091486828701610881565b9150509250925092565b600081905092915050565b7f19457468657265756d205369676e6564204d6573736167653a0a333200000000600082015250565b600061095f601c8361091e565b915061096a82610929565b601c82019050919050565b6000819050919050565b61099061098b826106b0565b610975565b82525050565b60006109a182610952565b91506109ad828461097f565b60208201915081905092915050565b7f4e487b7100000000000000000000000000000000000000000000000000000000600052601160045260246000fd5b60006109f682610668565b9150610a0183610668565b9250827fffffffffffffffffffffffffffffffffffffffffffffffffffffffffffffffff03821115610a3657610a356109bc565b5b828201905092915050565b600082825260208201905092915050565b7f6e6f74207965742074696d6564206f7574000000000000000000000000000000600082015250565b6000610a88601183610a41565b9150610a9382610a52565b602082019050919050565b60006020820190508181036000830152610ab781610a7b565b9050919050565b7f796f7520617265206e6f74207468652073656c6c657200000000000000000000600082015250565b6000610af4601683610a41565b9150610aff82610abe565b602082019050919050565b60006020820190508181036000830152610b2381610ae7565b9050919050565b7f7369676e657220646f6573206e6f74206d617463686564000000000000000000600082015250565b6000610b60601783610a41565b9150610b6b82610b2a565b602082019050919050565b60006020820190508181036000830152610b8f81610b53565b9050919050565b6000610ba182610668565b9150610bac83610668565b9250817fffffffffffffffffffffffffffffffffffffffffffffffffffffffffffffffff0483118215151615610be557610be46109bc565b5b828202905092915050565b6000610bfb82610668565b9150610c0683610668565b925082821015610c1957610c186109bc565b5b828203905092915050565b60008160601b9050919050565b6000610c3c82610c24565b9050919050565b6000610c4e82610c31565b9050919050565b610c66610c618261062c565b610c43565b82525050565b6000819050919050565b610c87610c8282610668565b610c6c565b82525050565b6000819050919050565b6000610cb2610cad610ca88461060c565b610c8d565b61060c565b9050919050565b6000610cc482610c97565b9050919050565b6000610cd682610cb9565b9050919050565b610cee610ce982610ccb565b610c43565b82525050565b6000610d008287610c55565b601482019150610d108286610c76565b602082019150610d208285610c76565b602082019150610d308284610cdd565b60148201915081905095945050505050565b600060ff82169050919050565b610d5881610d42565b82525050565b6000608082019050610d736000830187610713565b610d806020830186610d4f565b610d8d6040830185610713565b610d9a6060830184610713565b95945050505050565b7f696e76616c6964207369676e6174757265206c656e6774680000000000000000600082015250565b6000610dd9601883610a41565b9150610de482610da3565b602082019050919050565b60006020820190508181036000830152610e0881610dcc565b905091905056fea26469706673582212202c2c87efc339cc2e6e0287efe2e5f44c8d4c625384294edecda0c7416dc5cf5c64736f6c634300080a0033",
  "immutableReferences": {},
  "source": "// SPDX-License-Identifier: MIT\npragma solidity >=0.4.22 <0.9.0;\n\n// : https://solidity-jp.readthedocs.io/ja/latest/solidity-by-example.html\n\ncontract IoTMicropayment {\n    address public seller;\n    address public buyer;\n\n    uint256 public startDate;\n    uint256 public timeout;\n\n    uint256 public unitPrice;\n    mapping(bytes32 => address) private signatures;\n    uint256 public withdrawed;\n\n    mapping(uint256 => bool) usedNonces;\n\n    constructor(\n        address _seller,\n        uint256 _timeout,\n        uint256 _unitPrice\n    ) payable {\n        require(msg.value > 0, \"deposit amount is not enough\");\n        buyer = msg.sender;\n        seller = _seller;\n        timeout = _timeout;\n        unitPrice = _unitPrice;\n        startDate = block.timestamp;\n    }\n\n    modifier onlySeller() {\n        require(msg.sender == seller, \"you are not the seller\");\n        _;\n    }\n\n    function claimPayment(\n        uint256 amount,\n        uint256 nonce,\n        bytes memory signature\n    ) public onlySeller {\n        require(!usedNonces[nonce]);\n        usedNonces[nonce] = true;\n\n        require(\n            verifySignature(buyer, amount, nonce, signature),\n            \"signer does not matched\"\n        );\n\n        uint256 amountToSend = amount * unitPrice - withdrawed;\n        withdrawed += amountToSend;\n        payable(seller).transfer(amountToSend);\n    }\n\n    function channelTimeout() public {\n        require(startDate + timeout <= block.timestamp, \"not yet timed out\");\n        selfdestruct(payable(buyer));\n    }\n\n    function verifySignature(\n        address signer,\n        uint256 amount,\n        uint256 nonce,\n        bytes memory signature\n    ) internal view returns (bool) {\n        bytes32 message = prefixed(\n            keccak256(abi.encodePacked(signer, amount, nonce, this))\n        );\n        return recoverSigner(message, signature) == signer;\n    }\n\n    function recoverSigner(bytes32 message, bytes memory signature)\n        internal\n        pure\n        returns (address)\n    {\n        (uint8 v, bytes32 r, bytes32 s) = splitSignature(signature);\n\n        return ecrecover(message, v, r, s);\n    }\n\n    function splitSignature(bytes memory signature)\n        internal\n        pure\n        returns (\n            uint8 v,\n            bytes32 r,\n            bytes32 s\n        )\n    {\n        require(signature.length == 65, \"invalid signature length\");\n\n        assembly {\n            r := mload(add(signature, 32))\n            s := mload(add(signature, 64))\n            v := byte(0, mload(add(signature, 96)))\n        }\n\n        return (v, r, s);\n    }\n\n    function prefixed(bytes32 _hash) public pure returns (bytes32) {\n        return\n            keccak256(\n                abi.encodePacked(\"\\x19Ethereum Signed Message:\\n32\", _hash)\n            );\n    }\n}\n",
  "sourcePath": "/workspaces/attiwohelp2/contracts/IoTMicropayment.sol",
  "compiler": {
    "name": "solc",
    "version": "0.8.10+commit.fc410830.Emscripten.clang"
  },
  "schemaVersion": "3.4.4",
  "updatedAt": "2022-01-24T04:58:41.195Z",
  "networkType": "ethereum",
  "devdoc": {
    "kind": "dev",
    "methods": {},
    "version": 1
  },
  "userdoc": {
    "kind": "user",
    "methods": {},
    "version": 1
  }
}