{
  "contractName": "IoTMicropayment",
  "abi": [
    {
      "inputs": [
        {
          "internalType": "address",
          "name": "_seller",
          "type": "address"
        },
        {
          "internalType": "uint256",
          "name": "_timeout",
          "type": "uint256"
        },
        {
          "internalType": "uint256",
          "name": "_unitPrice",
          "type": "uint256"
        }
      ],
      "stateMutability": "payable",
      "type": "constructor",
      "payable": true
    },
    {
      "inputs": [],
      "name": "buyer",
      "outputs": [
        {
          "internalType": "address",
          "name": "",
          "type": "address"
        }
      ],
      "stateMutability": "view",
      "type": "function",
      "constant": true
    },
    {
      "inputs": [],
      "name": "seller",
      "outputs": [
        {
          "internalType": "address",
          "name": "",
          "type": "address"
        }
      ],
      "stateMutability": "view",
      "type": "function",
      "constant": true
    },
    {
      "inputs": [],
      "name": "startDate",
      "outputs": [
        {
          "internalType": "uint256",
          "name": "",
          "type": "uint256"
        }
      ],
      "stateMutability": "view",
      "type": "function",
      "constant": true
    },
    {
      "inputs": [],
      "name": "timeout",
      "outputs": [
        {
          "internalType": "uint256",
          "name": "",
          "type": "uint256"
        }
      ],
      "stateMutability": "view",
      "type": "function",
      "constant": true
    },
    {
      "inputs": [],
      "name": "unitPrice",
      "outputs": [
        {
          "internalType": "uint256",
          "name": "",
          "type": "uint256"
        }
      ],
      "stateMutability": "view",
      "type": "function",
      "constant": true
    },
    {
      "inputs": [
        {
          "internalType": "uint256",
          "name": "amount",
          "type": "uint256"
        },
        {
          "internalType": "uint256",
          "name": "nonce",
          "type": "uint256"
        },
        {
          "internalType": "bytes",
          "name": "signature",
          "type": "bytes"
        }
      ],
      "name": "claimPayment",
      "outputs": [],
      "stateMutability": "nonpayable",
      "type": "function"
    },
    {
      "inputs": [],
      "name": "channelTimeout",
      "outputs": [],
      "stateMutability": "nonpayable",
      "type": "function"
    },
    {
      "inputs": [
        {
          "internalType": "address",
          "name": "signer",
          "type": "address"
        },
        {
          "internalType": "uint256",
          "name": "amount",
          "type": "uint256"
        },
        {
          "internalType": "uint256",
          "name": "nonce",
          "type": "uint256"
        },
        {
          "internalType": "bytes",
          "name": "signature",
          "type": "bytes"
        }
      ],
      "name": "verifySignature",
      "outputs": [
        {
          "internalType": "bool",
          "name": "",
          "type": "bool"
        }
      ],
      "stateMutability": "view",
      "type": "function",
      "constant": true
    },
    {
      "inputs": [
        {
          "internalType": "bytes32",
          "name": "_hash",
          "type": "bytes32"
        }
      ],
      "name": "prefixed",
      "outputs": [
        {
          "internalType": "bytes32",
          "name": "",
          "type": "bytes32"
        }
      ],
      "stateMutability": "pure",
      "type": "function",
      "constant": true
    }
  ],
  "bytecode": "0x6080604052604051620010ef380380620010ef8339818101604052810190620000299190620001b3565b600034116200006f576040517f08c379a0000000000000000000000000000000000000000000000000000000008152600401620000669062000270565b60405180910390fd5b33600160006101000a81548173ffffffffffffffffffffffffffffffffffffffff021916908373ffffffffffffffffffffffffffffffffffffffff160217905550826000806101000a81548173ffffffffffffffffffffffffffffffffffffffff021916908373ffffffffffffffffffffffffffffffffffffffff16021790555081600381905550806004819055504260028190555050505062000292565b600080fd5b600073ffffffffffffffffffffffffffffffffffffffff82169050919050565b6000620001408262000113565b9050919050565b620001528162000133565b81146200015e57600080fd5b50565b600081519050620001728162000147565b92915050565b6000819050919050565b6200018d8162000178565b81146200019957600080fd5b50565b600081519050620001ad8162000182565b92915050565b600080600060608486031215620001cf57620001ce6200010e565b5b6000620001df8682870162000161565b9350506020620001f2868287016200019c565b925050604062000205868287016200019c565b9150509250925092565b600082825260208201905092915050565b7f6465706f73697420616d6f756e74206973206e6f7420656e6f75676800000000600082015250565b600062000258601c836200020f565b9150620002658262000220565b602082019050919050565b600060208201905081810360008301526200028b8162000249565b9050919050565b610e4d80620002a26000396000f3fe608060405234801561001057600080fd5b50600436106100935760003560e01c806370dea79a1161006657806370dea79a1461010e5780637150d8ae1461012c578063a90ae8871461014a578063e73faa2d14610166578063ec0e642f1461018457610093565b806308551a53146100985780630b97bc86146100b65780631f275713146100d45780632ef2d55e14610104575b600080fd5b6100a06101b4565b6040516100ad91906105fe565b60405180910390f35b6100be6101d8565b6040516100cb9190610632565b60405180910390f35b6100ee60048036038101906100e99190610697565b6101de565b6040516100fb91906106d3565b60405180910390f35b61010c61020e565b005b61011661029b565b6040516101239190610632565b60405180910390f35b6101346102a1565b60405161014191906105fe565b60405180910390f35b610164600480360381019061015f9190610860565b6102c7565b005b61016e610463565b60405161017b9190610632565b60405180910390f35b61019e600480360381019061019991906108fb565b610469565b6040516101ab9190610999565b60405180910390f35b60008054906101000a900473ffffffffffffffffffffffffffffffffffffffff1681565b60025481565b6000816040516020016101f19190610a2c565b604051602081830303815290604052805190602001209050919050565b4260035460025461021f9190610a81565b1115610260576040517f08c379a000000000000000000000000000000000000000000000000000000000815260040161025790610b34565b60405180910390fd5b600160009054906101000a900473ffffffffffffffffffffffffffffffffffffffff1673ffffffffffffffffffffffffffffffffffffffff16ff5b60035481565b600160009054906101000a900473ffffffffffffffffffffffffffffffffffffffff1681565b60008054906101000a900473ffffffffffffffffffffffffffffffffffffffff1673ffffffffffffffffffffffffffffffffffffffff163373ffffffffffffffffffffffffffffffffffffffff1614610355576040517f08c379a000000000000000000000000000000000000000000000000000000000815260040161034c90610ba0565b60405180910390fd5b6006600083815260200190815260200160002060009054906101000a900460ff161561038057600080fd5b60016006600084815260200190815260200160002060006101000a81548160ff0219169083151502179055506103b833848484610469565b6103f7576040517f08c379a00000000000000000000000000000000000000000000000000000000081526004016103ee90610c0c565b60405180910390fd5b60008054906101000a900473ffffffffffffffffffffffffffffffffffffffff1673ffffffffffffffffffffffffffffffffffffffff166108fc849081150290604051600060405180830381858888f1935050505015801561045d573d6000803e3d6000fd5b50505050565b60045481565b6000806104a1868686306040516020016104869493929190610cfc565b604051602081830303815290604052805190602001206101de565b90508573ffffffffffffffffffffffffffffffffffffffff166104c482856104e6565b73ffffffffffffffffffffffffffffffffffffffff1614915050949350505050565b6000806000806104f585610555565b9250925092506001868484846040516000815260200160405260405161051e9493929190610d66565b6020604051602081039080840390855afa158015610540573d6000803e3d6000fd5b50505060206040510351935050505092915050565b6000806000604184511461059e576040517f08c379a000000000000000000000000000000000000000000000000000000000815260040161059590610df7565b60405180910390fd5b6020840151915060408401519050606084015160001a92509193909250565b600073ffffffffffffffffffffffffffffffffffffffff82169050919050565b60006105e8826105bd565b9050919050565b6105f8816105dd565b82525050565b600060208201905061061360008301846105ef565b92915050565b6000819050919050565b61062c81610619565b82525050565b60006020820190506106476000830184610623565b92915050565b6000604051905090565b600080fd5b600080fd5b6000819050919050565b61067481610661565b811461067f57600080fd5b50565b6000813590506106918161066b565b92915050565b6000602082840312156106ad576106ac610657565b5b60006106bb84828501610682565b91505092915050565b6106cd81610661565b82525050565b60006020820190506106e860008301846106c4565b92915050565b6106f781610619565b811461070257600080fd5b50565b600081359050610714816106ee565b92915050565b600080fd5b600080fd5b6000601f19601f8301169050919050565b7f4e487b7100000000000000000000000000000000000000000000000000000000600052604160045260246000fd5b61076d82610724565b810181811067ffffffffffffffff8211171561078c5761078b610735565b5b80604052505050565b600061079f61064d565b90506107ab8282610764565b919050565b600067ffffffffffffffff8211156107cb576107ca610735565b5b6107d482610724565b9050602081019050919050565b82818337600083830152505050565b60006108036107fe846107b0565b610795565b90508281526020810184848401111561081f5761081e61071f565b5b61082a8482856107e1565b509392505050565b600082601f8301126108475761084661071a565b5b81356108578482602086016107f0565b91505092915050565b60008060006060848603121561087957610878610657565b5b600061088786828701610705565b935050602061089886828701610705565b925050604084013567ffffffffffffffff8111156108b9576108b861065c565b5b6108c586828701610832565b9150509250925092565b6108d8816105dd565b81146108e357600080fd5b50565b6000813590506108f5816108cf565b92915050565b6000806000806080858703121561091557610914610657565b5b6000610923878288016108e6565b945050602061093487828801610705565b935050604061094587828801610705565b925050606085013567ffffffffffffffff8111156109665761096561065c565b5b61097287828801610832565b91505092959194509250565b60008115159050919050565b6109938161097e565b82525050565b60006020820190506109ae600083018461098a565b92915050565b600081905092915050565b7f19457468657265756d205369676e6564204d6573736167653a0a333200000000600082015250565b60006109f5601c836109b4565b9150610a00826109bf565b601c82019050919050565b6000819050919050565b610a26610a2182610661565b610a0b565b82525050565b6000610a37826109e8565b9150610a438284610a15565b60208201915081905092915050565b7f4e487b7100000000000000000000000000000000000000000000000000000000600052601160045260246000fd5b6000610a8c82610619565b9150610a9783610619565b9250827fffffffffffffffffffffffffffffffffffffffffffffffffffffffffffffffff03821115610acc57610acb610a52565b5b828201905092915050565b600082825260208201905092915050565b7f6e6f74207965742074696d6564206f7574000000000000000000000000000000600082015250565b6000610b1e601183610ad7565b9150610b2982610ae8565b602082019050919050565b60006020820190508181036000830152610b4d81610b11565b9050919050565b7f796f7520617265206e6f74207468652073656c6c657200000000000000000000600082015250565b6000610b8a601683610ad7565b9150610b9582610b54565b602082019050919050565b60006020820190508181036000830152610bb981610b7d565b9050919050565b7f7369676e657220646f6573206e6f74206d617463686564000000000000000000600082015250565b6000610bf6601783610ad7565b9150610c0182610bc0565b602082019050919050565b60006020820190508181036000830152610c2581610be9565b9050919050565b60008160601b9050919050565b6000610c4482610c2c565b9050919050565b6000610c5682610c39565b9050919050565b610c6e610c69826105dd565b610c4b565b82525050565b6000819050919050565b610c8f610c8a82610619565b610c74565b82525050565b6000819050919050565b6000610cba610cb5610cb0846105bd565b610c95565b6105bd565b9050919050565b6000610ccc82610c9f565b9050919050565b6000610cde82610cc1565b9050919050565b610cf6610cf182610cd3565b610c4b565b82525050565b6000610d088287610c5d565b601482019150610d188286610c7e565b602082019150610d288285610c7e565b602082019150610d388284610ce5565b60148201915081905095945050505050565b600060ff82169050919050565b610d6081610d4a565b82525050565b6000608082019050610d7b60008301876106c4565b610d886020830186610d57565b610d9560408301856106c4565b610da260608301846106c4565b95945050505050565b7f696e76616c6964207369676e6174757265206c656e6774680000000000000000600082015250565b6000610de1601883610ad7565b9150610dec82610dab565b602082019050919050565b60006020820190508181036000830152610e1081610dd4565b905091905056fea2646970667358221220d70907625d5ffbbd07cf4d27f4fc8aab06b8d179c1fe51e53392d54b83ecb74664736f6c634300080a0033",
  "immutableReferences": {},
  "source": "// SPDX-License-Identifier: MIT\npragma solidity >=0.4.22 <0.9.0;\n\n// : https://solidity-jp.readthedocs.io/ja/latest/solidity-by-example.html\n\ncontract IoTMicropayment {\n    address public seller;\n    address public buyer;\n\n    uint256 public startDate;\n    uint256 public timeout;\n\n    uint256 public unitPrice;\n    mapping(bytes32 => address) private signatures;\n\n    mapping(uint256 => bool) usedNonces;\n\n    constructor(\n        address _seller,\n        uint256 _timeout,\n        uint256 _unitPrice\n    ) payable {\n        require(msg.value > 0, \"deposit amount is not enough\");\n        buyer = msg.sender;\n        seller = _seller;\n        timeout = _timeout;\n        unitPrice = _unitPrice;\n        startDate = block.timestamp;\n    }\n\n    modifier onlySeller() {\n        require(msg.sender == seller, \"you are not the seller\");\n        _;\n    }\n\n    function claimPayment(\n        uint256 amount,\n        uint256 nonce,\n        bytes memory signature\n    ) public onlySeller {\n        require(!usedNonces[nonce]);\n        usedNonces[nonce] = true;\n\n        require(\n            verifySignature(msg.sender, amount, nonce, signature),\n            \"signer does not matched\"\n        );\n\n        payable(seller).transfer(amount);\n    }\n\n    function channelTimeout() public {\n        require(startDate + timeout <= block.timestamp, \"not yet timed out\");\n        selfdestruct(payable(buyer));\n    }\n\n    function verifySignature(\n        address signer,\n        uint256 amount,\n        uint256 nonce,\n        bytes memory signature\n    ) public view returns (bool) {\n        bytes32 message = prefixed(\n            keccak256(abi.encodePacked(signer, amount, nonce, this))\n        );\n        return recoverSigner(message, signature) == signer;\n    }\n\n    function recoverSigner(bytes32 message, bytes memory signature)\n        internal\n        pure\n        returns (address)\n    {\n        (uint8 v, bytes32 r, bytes32 s) = splitSignature(signature);\n\n        return ecrecover(message, v, r, s);\n    }\n\n    function splitSignature(bytes memory signature)\n        internal\n        pure\n        returns (\n            uint8 v,\n            bytes32 r,\n            bytes32 s\n        )\n    {\n        require(signature.length == 65, \"invalid signature length\");\n\n        assembly {\n            r := mload(add(signature, 32))\n            s := mload(add(signature, 64))\n            v := byte(0, mload(add(signature, 96)))\n        }\n\n        return (v, r, s);\n    }\n\n    function prefixed(bytes32 _hash) public pure returns (bytes32) {\n        return\n            keccak256(\n                abi.encodePacked(\"\\x19Ethereum Signed Message:\\n32\", _hash)\n            );\n    }\n}\n",
  "sourcePath": "/workspaces/attiwohelp2/contracts/IoTMicropayment.sol",
  "compiler": {
    "name": "solc",
    "version": "0.8.10+commit.fc410830.Emscripten.clang"
  },
  "schemaVersion": "3.4.4",
  "updatedAt": "2022-01-16T15:09:15.643Z",
  "networkType": "ethereum",
  "devdoc": {
    "kind": "dev",
    "methods": {},
    "version": 1
  },
  "userdoc": {
    "kind": "user",
    "methods": {},
    "version": 1
  }
}