{
  "contractName": "IoTMicropayment",
  "abi": [
    {
      "inputs": [
        {
          "internalType": "address",
          "name": "_seller",
          "type": "address"
        },
        {
          "internalType": "uint256",
          "name": "_timeout",
          "type": "uint256"
        },
        {
          "internalType": "uint256",
          "name": "_unitPrice",
          "type": "uint256"
        }
      ],
      "stateMutability": "payable",
      "type": "constructor",
      "payable": true
    },
    {
      "inputs": [],
      "name": "buyer",
      "outputs": [
        {
          "internalType": "address",
          "name": "",
          "type": "address"
        }
      ],
      "stateMutability": "view",
      "type": "function",
      "constant": true
    },
    {
      "inputs": [],
      "name": "seller",
      "outputs": [
        {
          "internalType": "address",
          "name": "",
          "type": "address"
        }
      ],
      "stateMutability": "view",
      "type": "function",
      "constant": true
    },
    {
      "inputs": [],
      "name": "startDate",
      "outputs": [
        {
          "internalType": "uint256",
          "name": "",
          "type": "uint256"
        }
      ],
      "stateMutability": "view",
      "type": "function",
      "constant": true
    },
    {
      "inputs": [],
      "name": "timeout",
      "outputs": [
        {
          "internalType": "uint256",
          "name": "",
          "type": "uint256"
        }
      ],
      "stateMutability": "view",
      "type": "function",
      "constant": true
    },
    {
      "inputs": [],
      "name": "unitPrice",
      "outputs": [
        {
          "internalType": "uint256",
          "name": "",
          "type": "uint256"
        }
      ],
      "stateMutability": "view",
      "type": "function",
      "constant": true
    },
    {
      "inputs": [],
      "name": "withdrawed",
      "outputs": [
        {
          "internalType": "uint256",
          "name": "",
          "type": "uint256"
        }
      ],
      "stateMutability": "view",
      "type": "function",
      "constant": true
    },
    {
      "inputs": [
        {
          "internalType": "uint256",
          "name": "amount",
          "type": "uint256"
        },
        {
          "internalType": "uint256",
          "name": "nonce",
          "type": "uint256"
        },
        {
          "internalType": "bytes",
          "name": "signature",
          "type": "bytes"
        }
      ],
      "name": "claimPayment",
      "outputs": [],
      "stateMutability": "nonpayable",
      "type": "function"
    },
    {
      "inputs": [],
      "name": "claimTimeout",
      "outputs": [],
      "stateMutability": "nonpayable",
      "type": "function"
    },
    {
      "inputs": [
        {
          "internalType": "bytes32",
          "name": "message",
          "type": "bytes32"
        },
        {
          "internalType": "bytes",
          "name": "signature",
          "type": "bytes"
        }
      ],
      "name": "recoverSigner",
      "outputs": [
        {
          "internalType": "address",
          "name": "",
          "type": "address"
        }
      ],
      "stateMutability": "pure",
      "type": "function",
      "constant": true
    },
    {
      "inputs": [
        {
          "internalType": "bytes32",
          "name": "_hash",
          "type": "bytes32"
        }
      ],
      "name": "prefixed",
      "outputs": [
        {
          "internalType": "bytes32",
          "name": "",
          "type": "bytes32"
        }
      ],
      "stateMutability": "pure",
      "type": "function",
      "constant": true
    }
  ],
  "bytecode": "0x60806040526040516200123b3803806200123b8339818101604052810190620000299190620001b3565b600034116200006f576040517f08c379a0000000000000000000000000000000000000000000000000000000008152600401620000669062000270565b60405180910390fd5b33600160006101000a81548173ffffffffffffffffffffffffffffffffffffffff021916908373ffffffffffffffffffffffffffffffffffffffff160217905550826000806101000a81548173ffffffffffffffffffffffffffffffffffffffff021916908373ffffffffffffffffffffffffffffffffffffffff16021790555081600381905550806004819055504260028190555050505062000292565b600080fd5b600073ffffffffffffffffffffffffffffffffffffffff82169050919050565b6000620001408262000113565b9050919050565b620001528162000133565b81146200015e57600080fd5b50565b600081519050620001728162000147565b92915050565b6000819050919050565b6200018d8162000178565b81146200019957600080fd5b50565b600081519050620001ad8162000182565b92915050565b600080600060608486031215620001cf57620001ce6200010e565b5b6000620001df8682870162000161565b9350506020620001f2868287016200019c565b925050604062000205868287016200019c565b9150509250925092565b600082825260208201905092915050565b7f6465706f73697420616d6f756e74206973206e6f7420656e6f75676800000000600082015250565b600062000258601c836200020f565b9150620002658262000220565b602082019050919050565b600060208201905081810360008301526200028b8162000249565b9050919050565b610f9980620002a26000396000f3fe608060405234801561001057600080fd5b506004361061009e5760003560e01c80637150d8ae116100665780637150d8ae1461013757806397aba7f9146101555780639a79712814610185578063a90ae887146101a3578063e73faa2d146101bf5761009e565b806308551a53146100a35780630b97bc86146100c15780630e1da6c3146100df5780631f275713146100e957806370dea79a14610119575b600080fd5b6100ab6101dd565b6040516100b891906106d9565b60405180910390f35b6100c9610201565b6040516100d6919061070d565b60405180910390f35b6100e7610207565b005b61010360048036038101906100fe9190610772565b610294565b60405161011091906107ae565b60405180910390f35b6101216102c4565b60405161012e919061070d565b60405180910390f35b61013f6102ca565b60405161014c91906106d9565b60405180910390f35b61016f600480360381019061016a919061090f565b6102f0565b60405161017c91906106d9565b60405180910390f35b61018d61035f565b60405161019a919061070d565b60405180910390f35b6101bd60048036038101906101b89190610997565b610365565b005b6101c76105ad565b6040516101d4919061070d565b60405180910390f35b60008054906101000a900473ffffffffffffffffffffffffffffffffffffffff1681565b60025481565b426003546002546102189190610a35565b1115610259576040517f08c379a000000000000000000000000000000000000000000000000000000000815260040161025090610ae8565b60405180910390fd5b600160009054906101000a900473ffffffffffffffffffffffffffffffffffffffff1673ffffffffffffffffffffffffffffffffffffffff16ff5b6000816040516020016102a79190610b80565b604051602081830303815290604052805190602001209050919050565b60035481565b600160009054906101000a900473ffffffffffffffffffffffffffffffffffffffff1681565b6000806000806102ff856105b3565b925092509250600186848484604051600081526020016040526040516103289493929190610bc2565b6020604051602081039080840390855afa15801561034a573d6000803e3d6000fd5b50505060206040510351935050505092915050565b60065481565b60008054906101000a900473ffffffffffffffffffffffffffffffffffffffff1673ffffffffffffffffffffffffffffffffffffffff163373ffffffffffffffffffffffffffffffffffffffff16146103f3576040517f08c379a00000000000000000000000000000000000000000000000000000000081526004016103ea90610c53565b60405180910390fd5b6007600083815260200190815260200160002060009054906101000a900460ff161561041e57600080fd5b60016007600084815260200190815260200160002060006101000a81548160ff021916908315150217905550610478600160009054906101000a900473ffffffffffffffffffffffffffffffffffffffff1684848461061b565b6104b7576040517f08c379a00000000000000000000000000000000000000000000000000000000081526004016104ae90610cbf565b60405180910390fd5b600654600454846104c89190610cdf565b11610508576040517f08c379a00000000000000000000000000000000000000000000000000000000081526004016104ff90610d85565b60405180910390fd5b60006006546004548561051b9190610cdf565b6105259190610da5565b905080600660008282546105399190610a35565b9250508190555060008054906101000a900473ffffffffffffffffffffffffffffffffffffffff1673ffffffffffffffffffffffffffffffffffffffff166108fc829081150290604051600060405180830381858888f193505050501580156105a6573d6000803e3d6000fd5b5050505050565b60045481565b600080600060418451146105fc576040517f08c379a00000000000000000000000000000000000000000000000000000000081526004016105f390610e25565b60405180910390fd5b6020840151915060408401519050606084015160001a92509193909250565b600080610653868686306040516020016106389493929190610f15565b60405160208183030381529060405280519060200120610294565b90508573ffffffffffffffffffffffffffffffffffffffff1661067682856102f0565b73ffffffffffffffffffffffffffffffffffffffff1614915050949350505050565b600073ffffffffffffffffffffffffffffffffffffffff82169050919050565b60006106c382610698565b9050919050565b6106d3816106b8565b82525050565b60006020820190506106ee60008301846106ca565b92915050565b6000819050919050565b610707816106f4565b82525050565b600060208201905061072260008301846106fe565b92915050565b6000604051905090565b600080fd5b600080fd5b6000819050919050565b61074f8161073c565b811461075a57600080fd5b50565b60008135905061076c81610746565b92915050565b60006020828403121561078857610787610732565b5b60006107968482850161075d565b91505092915050565b6107a88161073c565b82525050565b60006020820190506107c3600083018461079f565b92915050565b600080fd5b600080fd5b6000601f19601f8301169050919050565b7f4e487b7100000000000000000000000000000000000000000000000000000000600052604160045260246000fd5b61081c826107d3565b810181811067ffffffffffffffff8211171561083b5761083a6107e4565b5b80604052505050565b600061084e610728565b905061085a8282610813565b919050565b600067ffffffffffffffff82111561087a576108796107e4565b5b610883826107d3565b9050602081019050919050565b82818337600083830152505050565b60006108b26108ad8461085f565b610844565b9050828152602081018484840111156108ce576108cd6107ce565b5b6108d9848285610890565b509392505050565b600082601f8301126108f6576108f56107c9565b5b813561090684826020860161089f565b91505092915050565b6000806040838503121561092657610925610732565b5b60006109348582860161075d565b925050602083013567ffffffffffffffff81111561095557610954610737565b5b610961858286016108e1565b9150509250929050565b610974816106f4565b811461097f57600080fd5b50565b6000813590506109918161096b565b92915050565b6000806000606084860312156109b0576109af610732565b5b60006109be86828701610982565b93505060206109cf86828701610982565b925050604084013567ffffffffffffffff8111156109f0576109ef610737565b5b6109fc868287016108e1565b9150509250925092565b7f4e487b7100000000000000000000000000000000000000000000000000000000600052601160045260246000fd5b6000610a40826106f4565b9150610a4b836106f4565b9250827fffffffffffffffffffffffffffffffffffffffffffffffffffffffffffffffff03821115610a8057610a7f610a06565b5b828201905092915050565b600082825260208201905092915050565b7f6e6f74207965742074696d6564206f7574000000000000000000000000000000600082015250565b6000610ad2601183610a8b565b9150610add82610a9c565b602082019050919050565b60006020820190508181036000830152610b0181610ac5565b9050919050565b600081905092915050565b7f19457468657265756d205369676e6564204d6573736167653a0a333200000000600082015250565b6000610b49601c83610b08565b9150610b5482610b13565b601c82019050919050565b6000819050919050565b610b7a610b758261073c565b610b5f565b82525050565b6000610b8b82610b3c565b9150610b978284610b69565b60208201915081905092915050565b600060ff82169050919050565b610bbc81610ba6565b82525050565b6000608082019050610bd7600083018761079f565b610be46020830186610bb3565b610bf1604083018561079f565b610bfe606083018461079f565b95945050505050565b7f796f7520617265206e6f74207468652073656c6c657200000000000000000000600082015250565b6000610c3d601683610a8b565b9150610c4882610c07565b602082019050919050565b60006020820190508181036000830152610c6c81610c30565b9050919050565b7f7369676e657220646f6573206e6f74206d617463686564000000000000000000600082015250565b6000610ca9601783610a8b565b9150610cb482610c73565b602082019050919050565b60006020820190508181036000830152610cd881610c9c565b9050919050565b6000610cea826106f4565b9150610cf5836106f4565b9250817fffffffffffffffffffffffffffffffffffffffffffffffffffffffffffffffff0483118215151615610d2e57610d2d610a06565b5b828202905092915050565b7f7472616e7366657220616d6f756e7420697320756e646572207a65726f000000600082015250565b6000610d6f601d83610a8b565b9150610d7a82610d39565b602082019050919050565b60006020820190508181036000830152610d9e81610d62565b9050919050565b6000610db0826106f4565b9150610dbb836106f4565b925082821015610dce57610dcd610a06565b5b828203905092915050565b7f696e76616c6964207369676e6174757265206c656e6774680000000000000000600082015250565b6000610e0f601883610a8b565b9150610e1a82610dd9565b602082019050919050565b60006020820190508181036000830152610e3e81610e02565b9050919050565b60008160601b9050919050565b6000610e5d82610e45565b9050919050565b6000610e6f82610e52565b9050919050565b610e87610e82826106b8565b610e64565b82525050565b6000819050919050565b610ea8610ea3826106f4565b610e8d565b82525050565b6000819050919050565b6000610ed3610ece610ec984610698565b610eae565b610698565b9050919050565b6000610ee582610eb8565b9050919050565b6000610ef782610eda565b9050919050565b610f0f610f0a82610eec565b610e64565b82525050565b6000610f218287610e76565b601482019150610f318286610e97565b602082019150610f418285610e97565b602082019150610f518284610efe565b6014820191508190509594505050505056fea2646970667358221220cfa882cf5daa855f9dc0f3ffa63052fa5c57cfecb13a7c401634534c0304cdb764736f6c634300080a0033",
  "immutableReferences": {},
  "source": "// SPDX-License-Identifier: MIT\npragma solidity >=0.4.22 <0.9.0;\n\n// : https://solidity-jp.readthedocs.io/ja/latest/solidity-by-example.html\n\ncontract IoTMicropayment {\n    address public seller;\n    address public buyer;\n\n    uint256 public startDate;\n    uint256 public timeout;\n\n    uint256 public unitPrice;\n    mapping(bytes32 => address) private signatures;\n    uint256 public withdrawed;\n\n    mapping(uint256 => bool) usedNonces;\n\n    constructor(\n        address _seller,\n        uint256 _timeout,\n        uint256 _unitPrice\n    ) payable {\n        require(msg.value > 0, \"deposit amount is not enough\");\n        buyer = msg.sender;\n        seller = _seller;\n        timeout = _timeout;\n        unitPrice = _unitPrice;\n        startDate = block.timestamp;\n    }\n\n    modifier onlySeller() {\n        require(msg.sender == seller, \"you are not the seller\");\n        _;\n    }\n\n    function claimPayment(\n        uint256 amount,\n        uint256 nonce,\n        bytes memory signature\n    ) public onlySeller {\n        require(!usedNonces[nonce]);\n        usedNonces[nonce] = true;\n        require(\n            verifySignature(buyer, amount, nonce, signature),\n            \"signer does not matched\"\n        );\n\n        require(\n            amount * unitPrice > withdrawed,\n            \"transfer amount is under zero\"\n        );\n        uint256 amountToSend = amount * unitPrice - withdrawed;\n        withdrawed += amountToSend;\n        payable(seller).transfer(amountToSend);\n    }\n\n    function claimTimeout() public {\n        require(startDate + timeout <= block.timestamp, \"not yet timed out\");\n        selfdestruct(payable(buyer));\n    }\n\n    function verifySignature(\n        address signer,\n        uint256 amount,\n        uint256 nonce,\n        bytes memory signature\n    ) internal view returns (bool) {\n        bytes32 message = prefixed(\n            keccak256(abi.encodePacked(signer, amount, nonce, this))\n        );\n        return recoverSigner(message, signature) == signer;\n    }\n\n    function recoverSigner(bytes32 message, bytes memory signature)\n        public\n        pure\n        returns (address)\n    {\n        (uint8 v, bytes32 r, bytes32 s) = splitSignature(signature);\n\n        return ecrecover(message, v, r, s);\n    }\n\n    function splitSignature(bytes memory signature)\n        internal\n        pure\n        returns (\n            uint8 v,\n            bytes32 r,\n            bytes32 s\n        )\n    {\n        require(signature.length == 65, \"invalid signature length\");\n\n        assembly {\n            r := mload(add(signature, 32))\n            s := mload(add(signature, 64))\n            v := byte(0, mload(add(signature, 96)))\n        }\n\n        return (v, r, s);\n    }\n\n    function prefixed(bytes32 _hash) public pure returns (bytes32) {\n        return\n            keccak256(\n                abi.encodePacked(\"\\x19Ethereum Signed Message:\\n32\", _hash)\n            );\n    }\n}\n",
  "sourcePath": "/workspaces/attiwohelp2/contracts/IoTMicropayment.sol",
  "compiler": {
    "name": "solc",
    "version": "0.8.10+commit.fc410830.Emscripten.clang"
  },
  "schemaVersion": "3.4.4",
  "updatedAt": "2022-01-27T17:23:10.499Z",
  "networkType": "ethereum",
  "devdoc": {
    "kind": "dev",
    "methods": {},
    "version": 1
  },
  "userdoc": {
    "kind": "user",
    "methods": {},
    "version": 1
  }
}