{
  "contractName": "IoTMicropayment",
  "abi": [
    {
      "inputs": [
        {
          "internalType": "address",
          "name": "_seller",
          "type": "address"
        },
        {
          "internalType": "uint256",
          "name": "_timeout",
          "type": "uint256"
        },
        {
          "internalType": "uint256",
          "name": "_unitPrice",
          "type": "uint256"
        }
      ],
      "stateMutability": "payable",
      "type": "constructor",
      "payable": true
    },
    {
      "anonymous": false,
      "inputs": [
        {
          "indexed": false,
          "internalType": "uint256",
          "name": "amount",
          "type": "uint256"
        }
      ],
      "name": "Transfered",
      "type": "event"
    },
    {
      "inputs": [],
      "name": "buyer",
      "outputs": [
        {
          "internalType": "address",
          "name": "",
          "type": "address"
        }
      ],
      "stateMutability": "view",
      "type": "function",
      "constant": true
    },
    {
      "inputs": [],
      "name": "seller",
      "outputs": [
        {
          "internalType": "address",
          "name": "",
          "type": "address"
        }
      ],
      "stateMutability": "view",
      "type": "function",
      "constant": true
    },
    {
      "inputs": [],
      "name": "startDate",
      "outputs": [
        {
          "internalType": "uint256",
          "name": "",
          "type": "uint256"
        }
      ],
      "stateMutability": "view",
      "type": "function",
      "constant": true
    },
    {
      "inputs": [],
      "name": "timeout",
      "outputs": [
        {
          "internalType": "uint256",
          "name": "",
          "type": "uint256"
        }
      ],
      "stateMutability": "view",
      "type": "function",
      "constant": true
    },
    {
      "inputs": [],
      "name": "unitPrice",
      "outputs": [
        {
          "internalType": "uint256",
          "name": "",
          "type": "uint256"
        }
      ],
      "stateMutability": "view",
      "type": "function",
      "constant": true
    },
    {
      "inputs": [
        {
          "internalType": "uint256",
          "name": "amount",
          "type": "uint256"
        },
        {
          "internalType": "uint256",
          "name": "nonce",
          "type": "uint256"
        },
        {
          "internalType": "bytes",
          "name": "signature",
          "type": "bytes"
        }
      ],
      "name": "claimPayment",
      "outputs": [],
      "stateMutability": "nonpayable",
      "type": "function"
    },
    {
      "inputs": [],
      "name": "channelTimeout",
      "outputs": [],
      "stateMutability": "nonpayable",
      "type": "function"
    },
    {
      "inputs": [
        {
          "internalType": "bytes32",
          "name": "_hash",
          "type": "bytes32"
        }
      ],
      "name": "prefixed",
      "outputs": [
        {
          "internalType": "bytes32",
          "name": "",
          "type": "bytes32"
        }
      ],
      "stateMutability": "pure",
      "type": "function",
      "constant": true
    }
  ],
  "bytecode": "0x608060405260405162001028380380620010288339818101604052810190620000299190620001b3565b600034116200006f576040517f08c379a0000000000000000000000000000000000000000000000000000000008152600401620000669062000270565b60405180910390fd5b33600160006101000a81548173ffffffffffffffffffffffffffffffffffffffff021916908373ffffffffffffffffffffffffffffffffffffffff160217905550826000806101000a81548173ffffffffffffffffffffffffffffffffffffffff021916908373ffffffffffffffffffffffffffffffffffffffff16021790555081600381905550806004819055504260028190555050505062000292565b600080fd5b600073ffffffffffffffffffffffffffffffffffffffff82169050919050565b6000620001408262000113565b9050919050565b620001528162000133565b81146200015e57600080fd5b50565b600081519050620001728162000147565b92915050565b6000819050919050565b6200018d8162000178565b81146200019957600080fd5b50565b600081519050620001ad8162000182565b92915050565b600080600060608486031215620001cf57620001ce6200010e565b5b6000620001df8682870162000161565b9350506020620001f2868287016200019c565b925050604062000205868287016200019c565b9150509250925092565b600082825260208201905092915050565b7f6465706f73697420616d6f756e74206973206e6f7420656e6f75676800000000600082015250565b600062000258601c836200020f565b9150620002658262000220565b602082019050919050565b600060208201905081810360008301526200028b8162000249565b9050919050565b610d8680620002a26000396000f3fe608060405234801561001057600080fd5b50600436106100885760003560e01c806370dea79a1161005b57806370dea79a146101035780637150d8ae14610121578063a90ae8871461013f578063e73faa2d1461015b57610088565b806308551a531461008d5780630b97bc86146100ab5780631f275713146100c95780632ef2d55e146100f9575b600080fd5b610095610179565b6040516100a2919061061c565b60405180910390f35b6100b361019d565b6040516100c09190610650565b60405180910390f35b6100e360048036038101906100de91906106b5565b6101a3565b6040516100f091906106f1565b60405180910390f35b6101016101d3565b005b61010b610260565b6040516101189190610650565b60405180910390f35b610129610266565b604051610136919061061c565b60405180910390f35b6101596004803603810190610154919061087e565b61028c565b005b610163610481565b6040516101709190610650565b60405180910390f35b60008054906101000a900473ffffffffffffffffffffffffffffffffffffffff1681565b60025481565b6000816040516020016101b69190610965565b604051602081830303815290604052805190602001209050919050565b426003546002546101e491906109ba565b1115610225576040517f08c379a000000000000000000000000000000000000000000000000000000000815260040161021c90610a6d565b60405180910390fd5b600160009054906101000a900473ffffffffffffffffffffffffffffffffffffffff1673ffffffffffffffffffffffffffffffffffffffff16ff5b60035481565b600160009054906101000a900473ffffffffffffffffffffffffffffffffffffffff1681565b60008054906101000a900473ffffffffffffffffffffffffffffffffffffffff1673ffffffffffffffffffffffffffffffffffffffff163373ffffffffffffffffffffffffffffffffffffffff161461031a576040517f08c379a000000000000000000000000000000000000000000000000000000000815260040161031190610ad9565b60405180910390fd5b6006600083815260200190815260200160002060009054906101000a900460ff161561034557600080fd5b60016006600084815260200190815260200160002060006101000a81548160ff02191690831515021790555061039f600160009054906101000a900473ffffffffffffffffffffffffffffffffffffffff16848484610487565b6103de576040517f08c379a00000000000000000000000000000000000000000000000000000000081526004016103d590610b45565b60405180910390fd5b60008054906101000a900473ffffffffffffffffffffffffffffffffffffffff1673ffffffffffffffffffffffffffffffffffffffff166108fc849081150290604051600060405180830381858888f19350505050158015610444573d6000803e3d6000fd5b507fc3ff61e701dcb234c097bc55310aa4c22eba93eabcf10d07007f5673e58a5a67836040516104749190610650565b60405180910390a1505050565b60045481565b6000806104bf868686306040516020016104a49493929190610c35565b604051602081830303815290604052805190602001206101a3565b90508573ffffffffffffffffffffffffffffffffffffffff166104e28285610504565b73ffffffffffffffffffffffffffffffffffffffff1614915050949350505050565b60008060008061051385610573565b9250925092506001868484846040516000815260200160405260405161053c9493929190610c9f565b6020604051602081039080840390855afa15801561055e573d6000803e3d6000fd5b50505060206040510351935050505092915050565b600080600060418451146105bc576040517f08c379a00000000000000000000000000000000000000000000000000000000081526004016105b390610d30565b60405180910390fd5b6020840151915060408401519050606084015160001a92509193909250565b600073ffffffffffffffffffffffffffffffffffffffff82169050919050565b6000610606826105db565b9050919050565b610616816105fb565b82525050565b6000602082019050610631600083018461060d565b92915050565b6000819050919050565b61064a81610637565b82525050565b60006020820190506106656000830184610641565b92915050565b6000604051905090565b600080fd5b600080fd5b6000819050919050565b6106928161067f565b811461069d57600080fd5b50565b6000813590506106af81610689565b92915050565b6000602082840312156106cb576106ca610675565b5b60006106d9848285016106a0565b91505092915050565b6106eb8161067f565b82525050565b600060208201905061070660008301846106e2565b92915050565b61071581610637565b811461072057600080fd5b50565b6000813590506107328161070c565b92915050565b600080fd5b600080fd5b6000601f19601f8301169050919050565b7f4e487b7100000000000000000000000000000000000000000000000000000000600052604160045260246000fd5b61078b82610742565b810181811067ffffffffffffffff821117156107aa576107a9610753565b5b80604052505050565b60006107bd61066b565b90506107c98282610782565b919050565b600067ffffffffffffffff8211156107e9576107e8610753565b5b6107f282610742565b9050602081019050919050565b82818337600083830152505050565b600061082161081c846107ce565b6107b3565b90508281526020810184848401111561083d5761083c61073d565b5b6108488482856107ff565b509392505050565b600082601f83011261086557610864610738565b5b813561087584826020860161080e565b91505092915050565b60008060006060848603121561089757610896610675565b5b60006108a586828701610723565b93505060206108b686828701610723565b925050604084013567ffffffffffffffff8111156108d7576108d661067a565b5b6108e386828701610850565b9150509250925092565b600081905092915050565b7f19457468657265756d205369676e6564204d6573736167653a0a333200000000600082015250565b600061092e601c836108ed565b9150610939826108f8565b601c82019050919050565b6000819050919050565b61095f61095a8261067f565b610944565b82525050565b600061097082610921565b915061097c828461094e565b60208201915081905092915050565b7f4e487b7100000000000000000000000000000000000000000000000000000000600052601160045260246000fd5b60006109c582610637565b91506109d083610637565b9250827fffffffffffffffffffffffffffffffffffffffffffffffffffffffffffffffff03821115610a0557610a0461098b565b5b828201905092915050565b600082825260208201905092915050565b7f6e6f74207965742074696d6564206f7574000000000000000000000000000000600082015250565b6000610a57601183610a10565b9150610a6282610a21565b602082019050919050565b60006020820190508181036000830152610a8681610a4a565b9050919050565b7f796f7520617265206e6f74207468652073656c6c657200000000000000000000600082015250565b6000610ac3601683610a10565b9150610ace82610a8d565b602082019050919050565b60006020820190508181036000830152610af281610ab6565b9050919050565b7f7369676e657220646f6573206e6f74206d617463686564000000000000000000600082015250565b6000610b2f601783610a10565b9150610b3a82610af9565b602082019050919050565b60006020820190508181036000830152610b5e81610b22565b9050919050565b60008160601b9050919050565b6000610b7d82610b65565b9050919050565b6000610b8f82610b72565b9050919050565b610ba7610ba2826105fb565b610b84565b82525050565b6000819050919050565b610bc8610bc382610637565b610bad565b82525050565b6000819050919050565b6000610bf3610bee610be9846105db565b610bce565b6105db565b9050919050565b6000610c0582610bd8565b9050919050565b6000610c1782610bfa565b9050919050565b610c2f610c2a82610c0c565b610b84565b82525050565b6000610c418287610b96565b601482019150610c518286610bb7565b602082019150610c618285610bb7565b602082019150610c718284610c1e565b60148201915081905095945050505050565b600060ff82169050919050565b610c9981610c83565b82525050565b6000608082019050610cb460008301876106e2565b610cc16020830186610c90565b610cce60408301856106e2565b610cdb60608301846106e2565b95945050505050565b7f696e76616c6964207369676e6174757265206c656e6774680000000000000000600082015250565b6000610d1a601883610a10565b9150610d2582610ce4565b602082019050919050565b60006020820190508181036000830152610d4981610d0d565b905091905056fea2646970667358221220a370bef7021a1aaf61cad4f4b36836fcffe65bcc8e7d40dc7d9a5a7273dd1f8464736f6c634300080a0033",
  "immutableReferences": {},
  "source": "// SPDX-License-Identifier: MIT\npragma solidity >=0.4.22 <0.9.0;\n\n// : https://solidity-jp.readthedocs.io/ja/latest/solidity-by-example.html\n\ncontract IoTMicropayment {\n    address public seller;\n    address public buyer;\n\n    uint256 public startDate;\n    uint256 public timeout;\n\n    uint256 public unitPrice;\n    mapping(bytes32 => address) private signatures;\n\n    mapping(uint256 => bool) usedNonces;\n\n    constructor(\n        address _seller,\n        uint256 _timeout,\n        uint256 _unitPrice\n    ) payable {\n        require(msg.value > 0, \"deposit amount is not enough\");\n        buyer = msg.sender;\n        seller = _seller;\n        timeout = _timeout;\n        unitPrice = _unitPrice;\n        startDate = block.timestamp;\n    }\n\n    modifier onlySeller() {\n        require(msg.sender == seller, \"you are not the seller\");\n        _;\n    }\n\n    event Transfered(uint256 amount);\n\n    function claimPayment(\n        uint256 amount,\n        uint256 nonce,\n        bytes memory signature\n    ) public onlySeller {\n        require(!usedNonces[nonce]);\n        usedNonces[nonce] = true;\n\n        require(\n            verifySignature(buyer, amount, nonce, signature),\n            \"signer does not matched\"\n        );\n\n        payable(seller).transfer(amount);\n        emit Transfered(amount);\n    }\n\n    function channelTimeout() public {\n        require(startDate + timeout <= block.timestamp, \"not yet timed out\");\n        selfdestruct(payable(buyer));\n    }\n\n    function verifySignature(\n        address signer,\n        uint256 amount,\n        uint256 nonce,\n        bytes memory signature\n    ) internal view returns (bool) {\n        bytes32 message = prefixed(\n            keccak256(abi.encodePacked(signer, amount, nonce, this))\n        );\n        return recoverSigner(message, signature) == signer;\n    }\n\n    function recoverSigner(bytes32 message, bytes memory signature)\n        internal\n        pure\n        returns (address)\n    {\n        (uint8 v, bytes32 r, bytes32 s) = splitSignature(signature);\n\n        return ecrecover(message, v, r, s);\n    }\n\n    function splitSignature(bytes memory signature)\n        internal\n        pure\n        returns (\n            uint8 v,\n            bytes32 r,\n            bytes32 s\n        )\n    {\n        require(signature.length == 65, \"invalid signature length\");\n\n        assembly {\n            r := mload(add(signature, 32))\n            s := mload(add(signature, 64))\n            v := byte(0, mload(add(signature, 96)))\n        }\n\n        return (v, r, s);\n    }\n\n    function prefixed(bytes32 _hash) public pure returns (bytes32) {\n        return\n            keccak256(\n                abi.encodePacked(\"\\x19Ethereum Signed Message:\\n32\", _hash)\n            );\n    }\n}\n",
  "sourcePath": "/workspaces/attiwohelp2/contracts/IoTMicropayment.sol",
  "compiler": {
    "name": "solc",
    "version": "0.8.10+commit.fc410830.Emscripten.clang"
  },
  "schemaVersion": "3.4.4",
  "updatedAt": "2022-01-21T11:19:11.303Z",
  "networkType": "ethereum",
  "devdoc": {
    "kind": "dev",
    "methods": {},
    "version": 1
  },
  "userdoc": {
    "kind": "user",
    "methods": {},
    "version": 1
  }
}